{
  "_format": "hh-sol-artifact-1",
  "contractName": "Payment",
  "sourceName": "contracts/Payment.sol",
  "abi": [
    {
      "inputs": [
        {
          "internalType": "address",
          "name": "_treasury",
          "type": "address"
        },
        {
          "internalType": "uint256",
          "name": "_feeNumerator",
          "type": "uint256"
        }
      ],
      "stateMutability": "nonpayable",
      "type": "constructor"
    },
    {
      "inputs": [
        {
          "internalType": "address",
          "name": "target",
          "type": "address"
        }
      ],
      "name": "AddressEmptyCode",
      "type": "error"
    },
    {
      "inputs": [
        {
          "internalType": "address",
          "name": "account",
          "type": "address"
        }
      ],
      "name": "AddressInsufficientBalance",
      "type": "error"
    },
    {
      "inputs": [],
      "name": "EmptyPaymentList",
      "type": "error"
    },
    {
      "inputs": [],
      "name": "FailedInnerCall",
      "type": "error"
    },
    {
      "inputs": [
        {
          "internalType": "address",
          "name": "owner",
          "type": "address"
        }
      ],
      "name": "OwnableInvalidOwner",
      "type": "error"
    },
    {
      "inputs": [
        {
          "internalType": "address",
          "name": "account",
          "type": "address"
        }
      ],
      "name": "OwnableUnauthorizedAccount",
      "type": "error"
    },
    {
      "inputs": [
        {
          "internalType": "address",
          "name": "token",
          "type": "address"
        }
      ],
      "name": "SafeERC20FailedOperation",
      "type": "error"
    },
    {
      "inputs": [],
      "name": "TransferFailed",
      "type": "error"
    },
    {
      "inputs": [],
      "name": "ZeroAddress",
      "type": "error"
    },
    {
      "anonymous": false,
      "inputs": [
        {
          "indexed": true,
          "internalType": "uint256",
          "name": "paymentId",
          "type": "uint256"
        },
        {
          "indexed": true,
          "internalType": "address",
          "name": "payer",
          "type": "address"
        },
        {
          "components": [
            {
              "internalType": "address",
              "name": "token",
              "type": "address"
            },
            {
              "internalType": "address",
              "name": "receiver",
              "type": "address"
            },
            {
              "internalType": "uint256",
              "name": "amount",
              "type": "uint256"
            }
          ],
          "indexed": true,
          "internalType": "struct IPayment.Payment[]",
          "name": "payments",
          "type": "tuple[]"
        }
      ],
      "name": "MakePayment",
      "type": "event"
    },
    {
      "anonymous": false,
      "inputs": [
        {
          "indexed": false,
          "internalType": "uint256",
          "name": "feeNumerator",
          "type": "uint256"
        }
      ],
      "name": "NewFeeNumerator",
      "type": "event"
    },
    {
      "anonymous": false,
      "inputs": [
        {
          "indexed": true,
          "internalType": "address",
          "name": "newTreasury",
          "type": "address"
        }
      ],
      "name": "NewTreasury",
      "type": "event"
    },
    {
      "anonymous": false,
      "inputs": [
        {
          "indexed": true,
          "internalType": "address",
          "name": "previousOwner",
          "type": "address"
        },
        {
          "indexed": true,
          "internalType": "address",
          "name": "newOwner",
          "type": "address"
        }
      ],
      "name": "OwnershipTransferred",
      "type": "event"
    },
    {
      "inputs": [],
      "name": "feeNumerator",
      "outputs": [
        {
          "internalType": "uint256",
          "name": "",
          "type": "uint256"
        }
      ],
      "stateMutability": "view",
      "type": "function"
    },
    {
      "inputs": [
        {
          "internalType": "uint256",
          "name": "_paymentId",
          "type": "uint256"
        },
        {
          "components": [
            {
              "internalType": "address",
              "name": "token",
              "type": "address"
            },
            {
              "internalType": "address",
              "name": "receiver",
              "type": "address"
            },
            {
              "internalType": "uint256",
              "name": "amount",
              "type": "uint256"
            }
          ],
          "internalType": "struct IPayment.Payment[]",
          "name": "_payments",
          "type": "tuple[]"
        }
      ],
      "name": "makePayment",
      "outputs": [],
      "stateMutability": "payable",
      "type": "function"
    },
    {
      "inputs": [],
      "name": "owner",
      "outputs": [
        {
          "internalType": "address",
          "name": "",
          "type": "address"
        }
      ],
      "stateMutability": "view",
      "type": "function"
    },
    {
      "inputs": [],
      "name": "renounceOwnership",
      "outputs": [],
      "stateMutability": "nonpayable",
      "type": "function"
    },
    {
      "inputs": [
        {
          "internalType": "uint256",
          "name": "_feeNumerator",
          "type": "uint256"
        }
      ],
      "name": "setFee",
      "outputs": [],
      "stateMutability": "nonpayable",
      "type": "function"
    },
    {
      "inputs": [
        {
          "internalType": "address",
          "name": "_addr",
          "type": "address"
        }
      ],
      "name": "setTreasury",
      "outputs": [],
      "stateMutability": "nonpayable",
      "type": "function"
    },
    {
      "inputs": [
        {
          "internalType": "address",
          "name": "newOwner",
          "type": "address"
        }
      ],
      "name": "transferOwnership",
      "outputs": [],
      "stateMutability": "nonpayable",
      "type": "function"
    },
    {
      "inputs": [],
      "name": "treasury",
      "outputs": [
        {
          "internalType": "address",
          "name": "",
          "type": "address"
        }
      ],
      "stateMutability": "view",
      "type": "function"
    }
  ],
  "bytecode": "0x608060405234801561001057600080fd5b50604051610ab2380380610ab283398101604081905261002f916100ff565b338061005557604051631e4fbdf760e01b81526000600482015260240160405180910390fd5b61005e816100af565b506001600160a01b0382166100865760405163d92e233d60e01b815260040160405180910390fd5b600180546001600160a01b0319166001600160a01b039390931692909217909155600255610139565b600080546001600160a01b038381166001600160a01b0319831681178455604051919092169283917f8be0079c531659141344cd1fd0a4f28419497f9722a3daafe3b4186f6b6457e09190a35050565b6000806040838503121561011257600080fd5b82516001600160a01b038116811461012957600080fd5b6020939093015192949293505050565b61096a806101486000396000f3fe60806040526004361061007b5760003560e01c80638da5cb5b1161004e5780638da5cb5b14610107578063e86dea4a14610125578063f0f4426014610149578063f2fde38b1461016957600080fd5b80635add88491461008057806361d027b31461009557806369fe0e2d146100d2578063715018a6146100f2575b600080fd5b61009361008e366004610752565b610189565b005b3480156100a157600080fd5b506001546100b5906001600160a01b031681565b6040516001600160a01b0390911681526020015b60405180910390f35b3480156100de57600080fd5b506100936100ed3660046107d3565b61032b565b3480156100fe57600080fd5b5061009361036e565b34801561011357600080fd5b506000546001600160a01b03166100b5565b34801561013157600080fd5b5061013b60025481565b6040519081526020016100c9565b34801561015557600080fd5b50610093610164366004610808565b610382565b34801561017557600080fd5b50610093610184366004610808565b6103fb565b8060008190036101ac57604051636c37062560e01b815260040160405180910390fd5b60405133906101be9085908590610823565b604051908190038120906001600160a01b0383169087907f678ce193ea5705b7deb191c42eac8cbcd0f60f4f7ac93f50766e6844f7d22d0b90600090a46001546002546001600160a01b039091169060005b8481101561032157600087878381811061022c5761022c610886565b905060600201604001351115610319576102b387878381811061025157610251610886565b6102679260206060909202019081019150610808565b8589898581811061027a5761027a610886565b90506060020160200160208101906102929190610808565b8a8a868181106102a4576102a4610886565b9050606002016040013561043e565b6103198787838181106102c8576102c8610886565b6102de9260206060909202019081019150610808565b8585612710868c8c888181106102f6576102f6610886565b9050606002016040013561030a919061089c565b61031491906108c1565b61043e565b600101610210565b5050505050505050565b6103336104e1565b60028190556040518181527fcc5616b7661d2ff3c14b36d9f3e4df90f275eefb02bb1121a54899345cc501f79060200160405180910390a150565b6103766104e1565b610380600061050e565b565b61038a6104e1565b6001600160a01b0381166103b15760405163d92e233d60e01b815260040160405180910390fd5b600180546001600160a01b0319166001600160a01b0383169081179091556040517fafa147634b29e2c7bd53ce194256b9f41cfb9ba3036f2b822fdd1d965beea08690600090a250565b6104036104e1565b6001600160a01b03811661043257604051631e4fbdf760e01b8152600060048201526024015b60405180910390fd5b61043b8161050e565b50565b6001600160a01b0384166104c6576000826001600160a01b03168260405160006040518083038185875af1925050503d8060008114610499576040519150601f19603f3d011682016040523d82523d6000602084013e61049e565b606091505b50509050806104c0576040516312171d8360e31b815260040160405180910390fd5b506104db565b6104db6001600160a01b03851684848461055e565b50505050565b6000546001600160a01b031633146103805760405163118cdaa760e01b8152336004820152602401610429565b600080546001600160a01b038381166001600160a01b0319831681178455604051919092169283917f8be0079c531659141344cd1fd0a4f28419497f9722a3daafe3b4186f6b6457e09190a35050565b604080516001600160a01b038581166024830152848116604483015260648083018590528351808403909101815260849092019092526020810180516001600160e01b03166323b872dd60e01b1790526104db918691906000906105c490841683610617565b905080516000141580156105e95750808060200190518101906105e791906108e3565b155b1561061257604051635274afe760e01b81526001600160a01b0384166004820152602401610429565b505050565b60606106258383600061062e565b90505b92915050565b6060814710156106535760405163cd78605960e01b8152306004820152602401610429565b600080856001600160a01b0316848660405161066f9190610905565b60006040518083038185875af1925050503d80600081146106ac576040519150601f19603f3d011682016040523d82523d6000602084013e6106b1565b606091505b50915091506106c18683836106cd565b925050505b9392505050565b6060826106e2576106dd82610729565b6106c6565b81511580156106f957506001600160a01b0384163b155b1561072257604051639996b31560e01b81526001600160a01b0385166004820152602401610429565b50806106c6565b8051156107395780518082602001fd5b604051630a12f52160e11b815260040160405180910390fd5b60008060006040848603121561076757600080fd5b83359250602084013567ffffffffffffffff81111561078557600080fd5b8401601f8101861361079657600080fd5b803567ffffffffffffffff8111156107ad57600080fd5b8660206060830284010111156107c257600080fd5b939660209190910195509293505050565b6000602082840312156107e557600080fd5b5035919050565b80356001600160a01b038116811461080357600080fd5b919050565b60006020828403121561081a57600080fd5b610625826107ec565b60008184825b8581101561087b576001600160a01b03610842836107ec565b1683526001600160a01b03610859602084016107ec565b1660208401526040828101359084015260609283019290910190600101610829565b509095945050505050565b634e487b7160e01b600052603260045260246000fd5b808202811582820484141761062857634e487b7160e01b600052601160045260246000fd5b6000826108de57634e487b7160e01b600052601260045260246000fd5b500490565b6000602082840312156108f557600080fd5b815180151581146106c657600080fd5b6000825160005b81811015610926576020818601810151858301520161090c565b50600092019182525091905056fea2646970667358221220d6e0b145254d58ff064143a7ec9eda80a4c8a9d2e6e00c5175b6b00bd915644464736f6c634300081a0033",
  "linkReferences": {},
  "deployedLinkReferences": {}
}